{
  "_format": "hh-sol-artifact-1",
  "contractName": "MyNFT",
  "sourceName": "contracts/nft.sol",
  "abi": [
    {
      "inputs": [],
      "stateMutability": "nonpayable",
      "type": "constructor"
    },
    {
      "inputs": [
        {
          "internalType": "address",
          "name": "sender",
          "type": "address"
        },
        {
          "internalType": "uint256",
          "name": "tokenId",
          "type": "uint256"
        },
        {
          "internalType": "address",
          "name": "owner",
          "type": "address"
        }
      ],
      "name": "ERC721IncorrectOwner",
      "type": "error"
    },
    {
      "inputs": [
        {
          "internalType": "address",
          "name": "operator",
          "type": "address"
        },
        {
          "internalType": "uint256",
          "name": "tokenId",
          "type": "uint256"
        }
      ],
      "name": "ERC721InsufficientApproval",
      "type": "error"
    },
    {
      "inputs": [
        {
          "internalType": "address",
          "name": "approver",
          "type": "address"
        }
      ],
      "name": "ERC721InvalidApprover",
      "type": "error"
    },
    {
      "inputs": [
        {
          "internalType": "address",
          "name": "operator",
          "type": "address"
        }
      ],
      "name": "ERC721InvalidOperator",
      "type": "error"
    },
    {
      "inputs": [
        {
          "internalType": "address",
          "name": "owner",
          "type": "address"
        }
      ],
      "name": "ERC721InvalidOwner",
      "type": "error"
    },
    {
      "inputs": [
        {
          "internalType": "address",
          "name": "receiver",
          "type": "address"
        }
      ],
      "name": "ERC721InvalidReceiver",
      "type": "error"
    },
    {
      "inputs": [
        {
          "internalType": "address",
          "name": "sender",
          "type": "address"
        }
      ],
      "name": "ERC721InvalidSender",
      "type": "error"
    },
    {
      "inputs": [
        {
          "internalType": "uint256",
          "name": "tokenId",
          "type": "uint256"
        }
      ],
      "name": "ERC721NonexistentToken",
      "type": "error"
    },
    {
      "anonymous": false,
      "inputs": [
        {
          "indexed": true,
          "internalType": "address",
          "name": "owner",
          "type": "address"
        },
        {
          "indexed": true,
          "internalType": "address",
          "name": "approved",
          "type": "address"
        },
        {
          "indexed": true,
          "internalType": "uint256",
          "name": "tokenId",
          "type": "uint256"
        }
      ],
      "name": "Approval",
      "type": "event"
    },
    {
      "anonymous": false,
      "inputs": [
        {
          "indexed": true,
          "internalType": "address",
          "name": "owner",
          "type": "address"
        },
        {
          "indexed": true,
          "internalType": "address",
          "name": "operator",
          "type": "address"
        },
        {
          "indexed": false,
          "internalType": "bool",
          "name": "approved",
          "type": "bool"
        }
      ],
      "name": "ApprovalForAll",
      "type": "event"
    },
    {
      "anonymous": false,
      "inputs": [
        {
          "indexed": false,
          "internalType": "uint256",
          "name": "_fromTokenId",
          "type": "uint256"
        },
        {
          "indexed": false,
          "internalType": "uint256",
          "name": "_toTokenId",
          "type": "uint256"
        }
      ],
      "name": "BatchMetadataUpdate",
      "type": "event"
    },
    {
      "anonymous": false,
      "inputs": [
        {
          "indexed": false,
          "internalType": "uint256",
          "name": "_tokenId",
          "type": "uint256"
        }
      ],
      "name": "MetadataUpdate",
      "type": "event"
    },
    {
      "anonymous": false,
      "inputs": [
        {
          "indexed": true,
          "internalType": "address",
          "name": "from",
          "type": "address"
        },
        {
          "indexed": true,
          "internalType": "address",
          "name": "to",
          "type": "address"
        },
        {
          "indexed": true,
          "internalType": "uint256",
          "name": "tokenId",
          "type": "uint256"
        }
      ],
      "name": "Transfer",
      "type": "event"
    },
    {
      "inputs": [
        {
          "internalType": "address",
          "name": "to",
          "type": "address"
        },
        {
          "internalType": "uint256",
          "name": "tokenId",
          "type": "uint256"
        }
      ],
      "name": "approve",
      "outputs": [],
      "stateMutability": "nonpayable",
      "type": "function"
    },
    {
      "inputs": [
        {
          "internalType": "address",
          "name": "owner",
          "type": "address"
        }
      ],
      "name": "balanceOf",
      "outputs": [
        {
          "internalType": "uint256",
          "name": "",
          "type": "uint256"
        }
      ],
      "stateMutability": "view",
      "type": "function"
    },
    {
      "inputs": [
        {
          "internalType": "uint256",
          "name": "tokenId",
          "type": "uint256"
        }
      ],
      "name": "getApproved",
      "outputs": [
        {
          "internalType": "address",
          "name": "",
          "type": "address"
        }
      ],
      "stateMutability": "view",
      "type": "function"
    },
    {
      "inputs": [
        {
          "internalType": "address",
          "name": "owner",
          "type": "address"
        },
        {
          "internalType": "address",
          "name": "operator",
          "type": "address"
        }
      ],
      "name": "isApprovedForAll",
      "outputs": [
        {
          "internalType": "bool",
          "name": "",
          "type": "bool"
        }
      ],
      "stateMutability": "view",
      "type": "function"
    },
    {
      "inputs": [
        {
          "internalType": "address",
          "name": "recipient",
          "type": "address"
        },
        {
          "internalType": "string",
          "name": "tokenURI",
          "type": "string"
        }
      ],
      "name": "mintNFT",
      "outputs": [
        {
          "internalType": "uint256",
          "name": "",
          "type": "uint256"
        }
      ],
      "stateMutability": "nonpayable",
      "type": "function"
    },
    {
      "inputs": [],
      "name": "name",
      "outputs": [
        {
          "internalType": "string",
          "name": "",
          "type": "string"
        }
      ],
      "stateMutability": "view",
      "type": "function"
    },
    {
      "inputs": [
        {
          "internalType": "uint256",
          "name": "tokenId",
          "type": "uint256"
        }
      ],
      "name": "ownerOf",
      "outputs": [
        {
          "internalType": "address",
          "name": "",
          "type": "address"
        }
      ],
      "stateMutability": "view",
      "type": "function"
    },
    {
      "inputs": [
        {
          "internalType": "address",
          "name": "from",
          "type": "address"
        },
        {
          "internalType": "address",
          "name": "to",
          "type": "address"
        },
        {
          "internalType": "uint256",
          "name": "tokenId",
          "type": "uint256"
        }
      ],
      "name": "safeTransferFrom",
      "outputs": [],
      "stateMutability": "nonpayable",
      "type": "function"
    },
    {
      "inputs": [
        {
          "internalType": "address",
          "name": "from",
          "type": "address"
        },
        {
          "internalType": "address",
          "name": "to",
          "type": "address"
        },
        {
          "internalType": "uint256",
          "name": "tokenId",
          "type": "uint256"
        },
        {
          "internalType": "bytes",
          "name": "data",
          "type": "bytes"
        }
      ],
      "name": "safeTransferFrom",
      "outputs": [],
      "stateMutability": "nonpayable",
      "type": "function"
    },
    {
      "inputs": [
        {
          "internalType": "address",
          "name": "operator",
          "type": "address"
        },
        {
          "internalType": "bool",
          "name": "approved",
          "type": "bool"
        }
      ],
      "name": "setApprovalForAll",
      "outputs": [],
      "stateMutability": "nonpayable",
      "type": "function"
    },
    {
      "inputs": [
        {
          "internalType": "bytes4",
          "name": "interfaceId",
          "type": "bytes4"
        }
      ],
      "name": "supportsInterface",
      "outputs": [
        {
          "internalType": "bool",
          "name": "",
          "type": "bool"
        }
      ],
      "stateMutability": "view",
      "type": "function"
    },
    {
      "inputs": [],
      "name": "symbol",
      "outputs": [
        {
          "internalType": "string",
          "name": "",
          "type": "string"
        }
      ],
      "stateMutability": "view",
      "type": "function"
    },
    {
      "inputs": [],
      "name": "tokenCounter",
      "outputs": [
        {
          "internalType": "uint256",
          "name": "",
          "type": "uint256"
        }
      ],
      "stateMutability": "view",
      "type": "function"
    },
    {
      "inputs": [
        {
          "internalType": "uint256",
          "name": "tokenId",
          "type": "uint256"
        }
      ],
      "name": "tokenURI",
      "outputs": [
        {
          "internalType": "string",
          "name": "",
          "type": "string"
        }
      ],
      "stateMutability": "view",
      "type": "function"
    },
    {
      "inputs": [
        {
          "internalType": "address",
          "name": "from",
          "type": "address"
        },
        {
          "internalType": "address",
          "name": "to",
          "type": "address"
        },
        {
          "internalType": "uint256",
          "name": "tokenId",
          "type": "uint256"
        }
      ],
      "name": "transferFrom",
      "outputs": [],
      "stateMutability": "nonpayable",
      "type": "function"
    }
  ],
  "bytecode": "0x60806040523480156200001157600080fd5b5060405180604001604052806005815260200164135e53919560da1b815250604051806040016040528060048152602001631353919560e21b81525081600090816200005e919062000122565b5060016200006d828262000122565b5050600060075550620001ee565b634e487b7160e01b600052604160045260246000fd5b600181811c90821680620000a657607f821691505b602082108103620000c757634e487b7160e01b600052602260045260246000fd5b50919050565b601f8211156200011d576000816000526020600020601f850160051c81016020861015620000f85750805b601f850160051c820191505b81811015620001195782815560010162000104565b5050505b505050565b81516001600160401b038111156200013e576200013e6200007b565b62000156816200014f845462000091565b84620000cd565b602080601f8311600181146200018e5760008415620001755750858301515b600019600386901b1c1916600185901b17855562000119565b600085815260208120601f198616915b82811015620001bf578886015182559484019460019091019084016200019e565b5085821015620001de5787850151600019600388901b60f8161c191681555b5050505050600190811b01905550565b61132280620001fe6000396000f3fe608060405234801561001057600080fd5b50600436106100f55760003560e01c806370a0823111610097578063c87b56dd11610066578063c87b56dd146101ff578063d082e38114610212578063e985e9c51461021b578063eacabe141461022e57600080fd5b806370a08231146101b057806395d89b41146101d1578063a22cb465146101d9578063b88d4fde146101ec57600080fd5b8063095ea7b3116100d3578063095ea7b31461016257806323b872dd1461017757806342842e0e1461018a5780636352211e1461019d57600080fd5b806301ffc9a7146100fa57806306fdde0314610122578063081812fc14610137575b600080fd5b61010d610108366004610de3565b610241565b60405190151581526020015b60405180910390f35b61012a61026c565b6040516101199190610e50565b61014a610145366004610e63565b6102fe565b6040516001600160a01b039091168152602001610119565b610175610170366004610e98565b610327565b005b610175610185366004610ec2565b610336565b610175610198366004610ec2565b6103c6565b61014a6101ab366004610e63565b6103e6565b6101c36101be366004610efe565b6103f1565b604051908152602001610119565b61012a610439565b6101756101e7366004610f19565b610448565b6101756101fa366004610fe1565b610453565b61012a61020d366004610e63565b61046a565b6101c360075481565b61010d61022936600461105d565b61057b565b6101c361023c366004611090565b6105a9565b60006001600160e01b03198216632483248360e11b14806102665750610266826105e0565b92915050565b60606000805461027b906110f2565b80601f01602080910402602001604051908101604052809291908181526020018280546102a7906110f2565b80156102f45780601f106102c9576101008083540402835291602001916102f4565b820191906000526020600020905b8154815290600101906020018083116102d757829003601f168201915b5050505050905090565b600061030982610630565b506000828152600460205260409020546001600160a01b0316610266565b610332828233610669565b5050565b6001600160a01b03821661036557604051633250574960e11b8152600060048201526024015b60405180910390fd5b6000610372838333610676565b9050836001600160a01b0316816001600160a01b0316146103c0576040516364283d7b60e01b81526001600160a01b038086166004830152602482018490528216604482015260640161035c565b50505050565b6103e183838360405180602001604052806000815250610453565b505050565b600061026682610630565b60006001600160a01b03821661041d576040516322718ad960e21b81526000600482015260240161035c565b506001600160a01b031660009081526003602052604090205490565b60606001805461027b906110f2565b61033233838361076f565b61045e848484610336565b6103c08484848461080e565b606061047582610630565b506000828152600660205260408120805461048f906110f2565b80601f01602080910402602001604051908101604052809291908181526020018280546104bb906110f2565b80156105085780601f106104dd57610100808354040283529160200191610508565b820191906000526020600020905b8154815290600101906020018083116104eb57829003601f168201915b50505050509050600061052660408051602081019091526000815290565b90508051600003610538575092915050565b81511561056a57808260405160200161055292919061112c565b60405160208183030381529060405292505050919050565b61057384610937565b949350505050565b6001600160a01b03918216600090815260056020908152604080832093909416825291909152205460ff1690565b6007546000906105b984826109ac565b6105c381846109c6565b600780549060006105d38361115b565b9091555090949350505050565b60006001600160e01b031982166380ac58cd60e01b148061061157506001600160e01b03198216635b5e139f60e01b145b8061026657506301ffc9a760e01b6001600160e01b0319831614610266565b6000818152600260205260408120546001600160a01b03168061026657604051637e27328960e01b81526004810184905260240161035c565b6103e18383836001610a16565b6000828152600260205260408120546001600160a01b03908116908316156106a3576106a3818486610b1c565b6001600160a01b038116156106e1576106c0600085600080610a16565b6001600160a01b038116600090815260036020526040902080546000190190555b6001600160a01b03851615610710576001600160a01b0385166000908152600360205260409020805460010190555b60008481526002602052604080822080546001600160a01b0319166001600160a01b0389811691821790925591518793918516917fddf252ad1be2c89b69c2b068fc378daa952ba7f163c4a11628f55a4df523b3ef91a4949350505050565b6001600160a01b0382166107a157604051630b61174360e31b81526001600160a01b038316600482015260240161035c565b6001600160a01b03838116600081815260056020908152604080832094871680845294825291829020805460ff191686151590811790915591519182527f17307eab39ab6107e8899845ad3d59bd9653f200f220920489ca2b5937696c31910160405180910390a3505050565b6001600160a01b0383163b156103c057604051630a85bd0160e11b81526001600160a01b0384169063150b7a0290610850903390889087908790600401611182565b6020604051808303816000875af192505050801561088b575060408051601f3d908101601f19168201909252610888918101906111bf565b60015b6108f4573d8080156108b9576040519150601f19603f3d011682016040523d82523d6000602084013e6108be565b606091505b5080516000036108ec57604051633250574960e11b81526001600160a01b038516600482015260240161035c565b805181602001fd5b6001600160e01b03198116630a85bd0160e11b1461093057604051633250574960e11b81526001600160a01b038516600482015260240161035c565b5050505050565b606061094282610630565b50600061095a60408051602081019091526000815290565b9050600081511161097a57604051806020016040528060008152506109a5565b8061098484610b80565b60405160200161099592919061112c565b6040516020818303038152906040525b9392505050565b610332828260405180602001604052806000815250610c13565b60008281526006602052604090206109de828261122c565b506040518281527ff8e1a15aba9398e019f0b49df1a4fde98ee17ae345cb5f6b5e2c27f5033e8ce79060200160405180910390a15050565b8080610a2a57506001600160a01b03821615155b15610aec576000610a3a84610630565b90506001600160a01b03831615801590610a665750826001600160a01b0316816001600160a01b031614155b8015610a795750610a77818461057b565b155b15610aa25760405163a9fbf51f60e01b81526001600160a01b038416600482015260240161035c565b8115610aea5783856001600160a01b0316826001600160a01b03167f8c5be1e5ebec7d5bd14f71427d1e84f3dd0314c0f7b2291e5b200ac8c7c3b92560405160405180910390a45b505b5050600090815260046020526040902080546001600160a01b0319166001600160a01b0392909216919091179055565b610b27838383610c2a565b6103e1576001600160a01b038316610b5557604051637e27328960e01b81526004810182905260240161035c565b60405163177e802f60e01b81526001600160a01b03831660048201526024810182905260440161035c565b60606000610b8d83610c8d565b600101905060008167ffffffffffffffff811115610bad57610bad610f55565b6040519080825280601f01601f191660200182016040528015610bd7576020820181803683370190505b5090508181016020015b600019016f181899199a1a9b1b9c1cb0b131b232b360811b600a86061a8153600a8504945084610be157509392505050565b610c1d8383610d65565b6103e1600084848461080e565b60006001600160a01b038316158015906105735750826001600160a01b0316846001600160a01b03161480610c645750610c64848461057b565b806105735750506000908152600460205260409020546001600160a01b03908116911614919050565b60008072184f03e93ff9f4daa797ed6e38ed64bf6a1f0160401b8310610ccc5772184f03e93ff9f4daa797ed6e38ed64bf6a1f0160401b830492506040015b6d04ee2d6d415b85acef81000000008310610cf8576d04ee2d6d415b85acef8100000000830492506020015b662386f26fc100008310610d1657662386f26fc10000830492506010015b6305f5e1008310610d2e576305f5e100830492506008015b6127108310610d4257612710830492506004015b60648310610d54576064830492506002015b600a83106102665760010192915050565b6001600160a01b038216610d8f57604051633250574960e11b81526000600482015260240161035c565b6000610d9d83836000610676565b90506001600160a01b038116156103e1576040516339e3563760e11b81526000600482015260240161035c565b6001600160e01b031981168114610de057600080fd5b50565b600060208284031215610df557600080fd5b81356109a581610dca565b60005b83811015610e1b578181015183820152602001610e03565b50506000910152565b60008151808452610e3c816020860160208601610e00565b601f01601f19169290920160200192915050565b6020815260006109a56020830184610e24565b600060208284031215610e7557600080fd5b5035919050565b80356001600160a01b0381168114610e9357600080fd5b919050565b60008060408385031215610eab57600080fd5b610eb483610e7c565b946020939093013593505050565b600080600060608486031215610ed757600080fd5b610ee084610e7c565b9250610eee60208501610e7c565b9150604084013590509250925092565b600060208284031215610f1057600080fd5b6109a582610e7c565b60008060408385031215610f2c57600080fd5b610f3583610e7c565b915060208301358015158114610f4a57600080fd5b809150509250929050565b634e487b7160e01b600052604160045260246000fd5b600067ffffffffffffffff80841115610f8657610f86610f55565b604051601f8501601f19908116603f01168101908282118183101715610fae57610fae610f55565b81604052809350858152868686011115610fc757600080fd5b858560208301376000602087830101525050509392505050565b60008060008060808587031215610ff757600080fd5b61100085610e7c565b935061100e60208601610e7c565b925060408501359150606085013567ffffffffffffffff81111561103157600080fd5b8501601f8101871361104257600080fd5b61105187823560208401610f6b565b91505092959194509250565b6000806040838503121561107057600080fd5b61107983610e7c565b915061108760208401610e7c565b90509250929050565b600080604083850312156110a357600080fd5b6110ac83610e7c565b9150602083013567ffffffffffffffff8111156110c857600080fd5b8301601f810185136110d957600080fd5b6110e885823560208401610f6b565b9150509250929050565b600181811c9082168061110657607f821691505b60208210810361112657634e487b7160e01b600052602260045260246000fd5b50919050565b6000835161113e818460208801610e00565b835190830190611152818360208801610e00565b01949350505050565b60006001820161117b57634e487b7160e01b600052601160045260246000fd5b5060010190565b6001600160a01b03858116825284166020820152604081018390526080606082018190526000906111b590830184610e24565b9695505050505050565b6000602082840312156111d157600080fd5b81516109a581610dca565b601f8211156103e1576000816000526020600020601f850160051c810160208610156112055750805b601f850160051c820191505b8181101561122457828155600101611211565b505050505050565b815167ffffffffffffffff81111561124657611246610f55565b61125a8161125484546110f2565b846111dc565b602080601f83116001811461128f57600084156112775750858301515b600019600386901b1c1916600185901b178555611224565b600085815260208120601f198616915b828110156112be5788860151825594840194600190910190840161129f565b50858210156112dc5787850151600019600388901b60f8161c191681555b5050505050600190811b0190555056fea2646970667358221220922ac9b77a4bcce7f6daa5b095eb7529c09f7cc174b79bbf99dcd39286eca1d164736f6c63430008170033",
  "linkReferences": {},
  "deployedLinkReferences": {}
}